:100000000001600EAD6F020EB16F0401186BC16B81
:10001000C96B0401CE6B006BC6870187CEB761EF59
:1000200000F0D16BD18FD187F4ECFFF0F4ECFFF04E
:10003000F4ECFFF0F4ECFFF0CEB761EF00F0830ECC
:10004000D16FF4ECFFF0F4ECFFF0F4ECFFF0F4EC23
:10005000FFF0CEB761EF00F0C60ED16FF4ECFFF009
:10006000F4ECFFF0F4ECFFF0F4ECFFF0CEB761EF4E
:1000700000F0A10ED16FF4ECFFF0F4ECFFF0F4EC23
:10008000FFF0F4ECFFF0CEB761EF00F0860ED16F19
:10009000F4ECFFF0F4ECFFF0F4ECFFF0F4ECFFF024
:1000A000CEB761EF00F08E0ED16FF4ECFFF0F4EC00
:1000B000FFF0F4ECFFF0F4ECFFF0CEB761EF00F0EE
:1000C0001200C00ED16FF4ECFFF0F4ECFFF0F4EC92
:1000D000FFF0F4ECFFF0CEA711EF00F0F90ED16FB6
:1000E000F4ECFFF0F4ECFFF0F4ECFFF0F4ECFFF0D4
:1000F000CEA711EF00F0A40ED16FF4ECFFF0F4ECFA
:10010000FFF0F4ECFFF0F4ECFFF0CEA711EF00F0FD
:10011000B00ED16FF4ECFFF0F4ECFFF0F4ECFFF074
:10012000F4ECFFF0CEA711EF00F0990ED16FF4ECD4
:10013000FFF0F4ECFFF0F4ECFFF0F4ECFFF0CEA7EE
:1001400011EF00F0920ED16FF4ECFFF0F4ECFFF041
:10015000F4ECFFF0F4ECFFF0CEA711EF00F0820E0C
:10016000D16FF4ECFFF0F4ECFFF0F4ECFFF0F4EC02
:10017000FFF0CEA711EF00F0F80ED16FF4ECFFF016
:10018000F4ECFFF0F4ECFFF0F4ECFFF0CEA711EF8D
:1001900000F0800ED16FF4ECFFF0F4ECFFF0F4EC23
:1001A000FFF0F4ECFFF0CEA711EF00F0980ED16F46
:1001B000F4ECFFF0F4ECFFF0F4ECFFF0F4ECFFF003
:0801C000CEA711EF00F01200C0
:020000040001F9
:10FEDA0000EF00F0010E006E0000002E71EFFFF03F
:10FEEA001200050E006E0000002E78EFFFF01200DF
:10FEFA000B0E006E0000002E7FEFFFF01200180EAE
:10FF0A00006E0000002E86EFFFF01200310E006E28
:10FF1A000000002E8DEFFFF012003D0E006E000073
:10FF2A00002E94EFFFF012007C0E006E0000002EEF
:10FF3A009BEFFFF01200010E016EF90E006E000039
:10FF4A00002EA4EFFFF0012EA2EFFFF01200050E23
:10FF5A00016EF90E006E0000002EB0EFFFF0012EC8
:10FF6A00AEEFFFF012000A0E016EF90E006E0000ED
:10FF7A00002EBCEFFFF0012EBAEFFFF01200190EAF
:10FF8A00016EF90E006E0000002EC8EFFFF0012E80
:10FF9A00C6EFFFF01200320E016EF90E006E00007D
:10FFAA00002ED4EFFFF0012ED2EFFFF01200640E04
:10FFBA00016EF90E006E0000002EE0EFFFF0012E38
:10FFCA00DEEFFFF01200C80E016EF90E006E00009F
:10FFDA00002EECEFFFF0012EEAEFFFF01200FA0E0E
:10FFEA00016EF90E006E0000002EF8EFFFF0012EF0
:06FFFA00F6EFFFF012001B
:020000040030CA
:10000000EC0D27C79FFFFFFFFFFFFFFFFFFFFFFF75
:10001000FFFFFFFFFFFFFFFFFFFFFFFFFFFFFFFFF0
:03002000FFFFFFE0
:00000001FF
