:0400000013EF00F00A
:0E000800B4B05BEF00F0B8B05FEF00F0100096
:10001800AFA012EF00F0AF9028EF00F0100064EDF1
:1000280000F06AED00F081ED00F08BED00F00401C6
:10003800C3769CED00F09CED00F0C3769CED00F0DB
:100048009CED00F01BEF00F0050E006E000E036E35
:100058002EEF00F0C3870A0E016E000E026E35EF18
:1000680000F00401000EFB6F000EFA6F024450EC22
:1000780000F0C06E9CEC00F0012E45EF00F04BEF55
:1000880000F0022A03A235EF00F012EF00F0002E74
:100098002EEF00F012EF00F0F9267E0CBD0CDB0C01
:1000A800E70CFF0CE70CDB0CBD0C7E0CFF0CB490CE
:1000B80003680AEF00F0B8900368C0680AEF00F020
:1000C8000001600EAD6F020EB16F12000401CE6B1D
:1000D800006BC68701870401CF6B0899C789098916
:1000E8000401D069C069106BC86B0401D36B286B1D
:1000F800CB852985C387CB9712000201030E3E6F7B
:1001080002010C0E3F6F02012A0E406F1200D68AC0
:100118000301639168816C81D690AF909F80D692DD
:10012800B490A480D694B890A880D68ED68C1200AD
:10013800FA0E056EF90E046E0000042EA0EF00F012
:08014800052E9EEF00F01200ED
:020000040030CA
:10000000EC0D27C79FFFFFFFFFFFFFFFFFFFFFFF75
:10001000FFFFFFFFFFFFFFFFFFFFFFFFFFFFFFFFF0
:03002000FFFFFFE0
:00000001FF
